:200000000C9462000C948A000C948A000C948A000C948A000C948A000C948A000C948A00B8
:200020000C948A000C948A000C948A000C948A000C948A000C948A000C948A000C948A0070
:200040000C94A80D0C948A000C948A000C948A000C948A000C948A000C948A000C948A0025
:200060000C9433150C948A0000000000240027002A0000000000250028002B000000000081
:20008000230026002900040404040404040402020202020203030303030301020408102071
:2000A0004080010204081020010204081020000000080002010000030407000000000000E9
:2000C0000000921E11241FBECFEFD8E0DEBFCDBF12E0A0E0B1E0E4E1F2E402C005900D922B
:2000E000A431B107D9F723E0A4E1B2E001C01D92A237B207E1F710E0C2E6D0E004C02197EB
:20010000FE010E94F420C136D107C9F70E947F1E0C9408210C940000CF93DF93CDB7DEB706
:2001200028970FB6F894DEBF0FBECDBF9C838B837E836D8358874F831A8219828F81988586
:200140009C012150310938872F8321E0892B09F420E0222311F18B819C81FC0180819181B4
:20016000FC01208131818D819E81AC014F5F5F4F5E834D83FC0140818B819C81642FF901D4
:20018000099521E0892B09F420E0222331F089819A8101969A838983D1CF89819A81289641
:2001A0000FB6F894DEBF0FBECDBFDF91CF910895CF93DF9300D000D000D0CDB7DEB79A8311
:2001C00089837C836B835E834D8389819A81FC01808191810296FC01208131814D815E81AB
:2001E0006B817C8189819A81F901099526960FB6F894DEBF0FBECDBFDF91CF910895CF9387
:20020000DF9300D0CDB7DEB79A83898389819A81FC01808191810F900F90DF91CF9108957A
:20022000CF93DF9300D0CDB7DEB79A83898389819A81FC01848195810F900F90DF91CF918D
:200240000895833081F028F4813099F08230A9F008958730A9F08830C9F08430B1F4809174
:2002600080008F7D03C0809180008F7780938000089584B58F7784BD089584B58F7DFBCF3C
:200280008091B0008F778093B00008958091B0008F7DF9CF1F93DF93282F30E0F901E255E6
:2002A000FF4F8491F901E656FF4F1491F901EA57FF4FD491DD23A1F081110E942101ED2FC1
:2002C000F0E0EE0FFF1FE458FF4FA591B491EC91E12381E090E009F480E0DF911F910895C2
:2002E00080E090E0FACF0F931F93DF93282F30E0F901E255FF4F8491F901E656FF4F14917B
:20030000F901EA57FF4FD491DD23A9F0062F81110E942101ED2FF0E0EE0FFF1FEE58FF4F30
:20032000A591B4918FB7F894EC91011108C010951E231C938FBFDF911F910F9108951E2B90
:20034000F8CF90E0FC01E656FF4F24918A579F4FFC018491882379F190E0880F991FFC0178
:20036000E859FF4FA591B491FC01EE58FF4F8591949161110DC04FB7F8943C91E22FE09583
:200380003E233C93DC012C912E232C934FBF0895623059F44FB7F8945C91322F30953523FC
:2003A0003C93DC01EC912E2BF0CF8FB7F894EC912E2B2C938FBF0895789484B5826084BD42
:2003C00084B5816084BD85B5826085BD85B5816085BDEEE6F0E0808181608083E1E8F0E0E5
:2003E0001082808182608083808181608083E0E8F0E0808181608083E1EBF0E080818460A2
:200400008083E0EBF0E0808181608083EAE7F0E08081846080838081826080838081816008
:2004200080838081806880831092C10008958230910538F0880F991F880F991F059701978B
:20044000F1F708953FB7F89480916E0390916F03A0917003B091710326B5A89B05C02F3FD6
:2004600019F00196A11DB11D3FBFBA2FA92F982F8827BC01CD01620F711D811D911D42E023
:20048000660F771F881F991F4A95D1F708958F929F92AF92BF92CF92DF92EF92FF926B017A
:2004A0007C010E9422024B015C01C114D104E104F104B9F00E942202681979098A099B0923
:2004C000683E73408105910580F321E0C21AD108E108F10888EE880E83E0981EA11CB11CED
:2004E000E4CFFF90EF90DF90CF90BF90AF909F908F9008952FB7F89460916A0370916B03B5
:2005000080916C0390916D032FBF0895CF93DF9300D01F92CDB7DEB79A8389836B838B81AE
:200520000E944A010F900F900F90DF91CF910895CF93DF9300D000D0CDB7DEB79A838983CE
:200540006B834C838C81682F8B810E9473010F900F900F900F90DF91CF910895CF93DF935B
:2005600000D000D0CDB7DEB79A8389836B834C836C818B810E94A1010F900F900F900F9023
:20058000DF91CF910895CF93DF9300D000D0CDB7DEB79A8389837C836B8389819A81FC0129
:2005A00080819181FC01208131814B8189819A81642FF90109950F900F900F900F90DF91D0
:2005C000CF9108959091EE0281111092EE02892F08951092EE026093EA027093EB02809320
:2005E000EC029093ED024093E90208959093100380930F03089590931403809313030895A8
:2006000020911103260F3327331F21323105ECF420913703FC0190E080E0243069F082E004
:200620000895A09111032191AC0141515D4FA40FB52FB11D2C930196861798F38091110333
:20064000680F6093110380E0089581E008959B01AC0160E074E284EF90E00E94D22020515A
:2006600031094109510956954795379527952093B8000895880F8093BA000895ECEBF0E09D
:2006800080818A7B808360E082E10E94730160E083E10C9473011092370381E08093390354
:2006A0001092380361E082E10E94730161E083E10E947301E9EBF0E080818E7F8083808132
:2006C0008D7F808388E48093B80085E48093BC0008951F93DF9391E09093EE02882361F05B
:2006E000D091B8001091BA000E943E030E944B031093BA00D093B800DF911F9108954F929D
:200700005F926F927F928F929F92AF92BF92DF92EF92FF920F931F93DF93413208F0D9C0A5
:20072000E22E142FD72EF62ED82F0E9422024B015C0180913703811170C082E0809337030B
:20074000009339038FEF8093360310925B0310935A039F2DAAE3B3E0EF2DFD2D8E2F891B6D
:20076000811708F48FC010925C0380915C03DD0FD82BD0935C0380913803813009F085C039
:20078000109238030E9422024B015C0180915C038093BB008091EA029091EB02A091EC02A5
:2007A000B091ED02892B8A2B8B2BA1F00E9422020091EA021091EB022091EC023091ED0239
:2007C000681979098A099B09061717072807390708F444C08091BC0083FDD8CF85EC8093BD
:2007E000BC000E9422024B015C01EE2029F080913703823009F44BC0809136038F3F09F48D
:200800006AC080913603803209F467C080913603803309F464C084E026C08091EA02909108
:20082000EB02A091EC02B091ED02892B8A2B8B2B09F47FCF0E9422024090EA025090EB02C3
:200840006090EC027090ED02681979098A099B09461657066806790608F06BCF8091E902BD
:200860000E94690385E0DF911F910F91FF90EF90DF90BF90AF909F908F907F906F905F90EF
:200880004F90089581918D9369CF85EEA8CF8091EA029091EB02A091EC02B091ED02892B7A
:2008A0008A2B8B2B09F4A1CF0E9422020091EA021091EB022091EC023091ED02681979093D
:2008C0008A099B09061717072807390708F08DCFC5CF81E0C8CF80E0C6CF82E0C4CF83E00A
:2008E000C2CF4F925F926F927F928F929F92AF92BF92EF92FF920F931F93DF93182F062F4B
:20090000F72ED42FE22E413208F0A0C00E9422024B015C0180913703811173C081E08093E1
:200920003703E09239039FEF9093360310925B039D0F90935A0380935C0380915C03110FB7
:20094000182B10935C0380913803813009F080C0109238030E9422024B015C0180915C0360
:200960008093BB008091EA029091EB02A091EC02B091ED02892B8A2B8B2BA1F00E942202D9
:200980004090EA025090EB026090EC027090ED02681979098A099B09461657066806790621
:2009A00008F450C08091BC0083FDD8CF85EC8093BC000E9422024B015C018091370381308C
:2009C00009F448C080915B038D1710F4D0915B03AAE3B3E0902FE02FFF2D8E2F891B8D171D
:2009E00008F45AC08D2FDF911F910F91FF90EF90BF90AF909F908F907F906F905F904F909F
:200A000008958091EA029091EB02A091EC02B091ED02892B8A2B8B2B09F47CCF0E942202B2
:200A20004090EA025090EB026090EC027090ED02681979098A099B09461657066806790680
:200A400008F068CF8091E9020E946903D0E0CACF85EEADCF8091EA029091EB02A091EC02FB
:200A6000B091ED02892B8A2B8B2B09F4A6CF0E9422024090EA025090EB026090EC02709088
:200A8000ED02681979098A099B09461657066806790608F092CFD6CF8D9181939ECFCF9388
:200AA000DF93CDB7DEB78091E7029091E802892B51F01092E4021092E3028091E702909187
:200AC000E802FC010995DF91CF910895CF93DF9300D000D01F92CDB7DEB79B838A837D83BB
:200AE0006C838091E5029091E602892B81F19091E2028091E102981750F119828981882F9B
:200B000090E02C813D8182179307A4F48981882F90E02A813B81280F391F8981882F90E0D7
:200B2000F90120818F539D4FFC01208389818F5F8983E4CF1092E2028C818093E1022091BB
:200B4000E5023091E6028C819D81F90109950F900F900F900F900F90DF91CF910895CF9358
:200B6000DF9300D0CDB7DEB79A8389830F900F90DF91CF910895CF93DF9300D000D0CDB74E
:200B8000DEB79C838B838FEF9FEF9A8389839091E2028091E102981760F48091E202882FB6
:200BA00090E08F539D4FFC018081882F90E09A83898389819A810F900F900F900F90DF9198
:200BC000CF910895CF93DF9300D000D0CDB7DEB79C838B838FEF9FEF9A8389839091E20224
:200BE0008091E102981788F48091E202882F90E08F539D4FFC018081882F90E09A8389839E
:200C00008091E2028F5F8093E20289819A810F900F900F900F90DF91CF910895CF93DF9318
:200C200000D0CDB7DEB79A8389838091E102282F30E08091E202882F90E0A901481B590BBA
:200C4000CA010F900F90DF91CF910895CF93DF93CDB7DEB728970FB6F894DEBF0FBECDBF2B
:200C60009C838B837E836D8358874F838091C002882321F11A82198229813A818F8198854C
:200C80002817390708F58B819C81FC0180819181FC01208131814D815E8189819A81840FEA
:200CA000951FFC0140818B819C81642FF901099589819A8101969A838983DECF2F818D811E
:200CC0009E81622F0E9400038F81988528960FB6F894DEBF0FBECDBFDF91CF910895CF93BE
:200CE000DF9300D0CDB7DEB79A8389830F900F90DF91CF910895CF93DF9300D0CDB7DEB708
:200D00009A83898380E090E00F900F90DF91CF910895CF93DF9300D0CDB7DEB79A83898349
:200D20002FE731E089819A81FC013183208389819A81FC01138212820F900F90DF91CF91BA
:200D40000895CF93DF9300D0CDB7DEB79A83898389819A810E9489062BE831E089819A8171
:200D6000FC013183208329813A8188EE93E0A0E0B0E0F90184839583A683B7830F900F9007
:200D8000DF91CF910895CF93DF9300D000D0CDB7DEB79A8389837C836B8389819A812B8172
:200DA0003C81FC01338322830F900F900F900F90DF91CF910895CF93DF9300D01F92CDB75C
:200DC000DEB79A8389836B838091C002882301F18091E302803248F089819A8161E070E061
:200DE0000E94C30680E090E01AC08091E402882F90E02B8180569D4FFC0120838091E402BB
:200E00008F5F8093E4028091E4028093E30205C0CE01039661E00E94000381E090E00F9079
:200E20000F900F90DF91CF910895CF93DF93CDB7DEB70E94FA200F931F93CF93DF9300D066
:200E400000D0CDB7DEB79A8389837C836B838B819C81892B19F480E090E015C089819A81DF
:200E6000FC01808191810296FC01008111818B819C810E94FF20AC012B813C8189819A8195
:200E8000B901F80109950F900F900F900F90DF91CF911F910F91089585ED8093BC00809176
:200EA000EA029091EB02A091EC02B091ED020796A11DB11D23E0B695A795979587952A952F
:200EC000D1F72091BC0024FD03C01092370308954091EA025091EB026091EC027091ED0226
:200EE000452B462B472B69F30097A105B10541F025E32A95F1F700000197A109B109E1CFC4
:200F00008091E9020C946903CF93DF93CDB7DEB7DF91CF910895CF93DF93CDB7DEB7DF9112
:200F2000CF910895CF93DF9300D0CDB7DEB79A83898380E090E00F900F90DF91CF91089553
:200F4000CF93DF93CDB7DEB70E94FA20CF93DF93CDB7DEB7AB970FB6F894DEBF0FBECDBF72
:200F60009EA38DA34FA358A769A77AA72BA7CE01049680969A83898389819A81FC011082B0
:200F80008BA5823010F48AE08BA78BA5282F30E040E050E08FA198A5A9A5BAA5BC01CD0143
:200FA0000E94D220DC01CB018B838BA5282F30E040E050E08FA198A5A9A5BAA5BC01CD015A
:200FC0000E94D220DA01C9018FA398A7A9A7BAA78B818A3024F48B81805D282F03C08B81C9
:200FE000895C282F89819A8101979A83898389819A81FC0120838FA198A5A9A5BAA5892B3C
:201000008A2B8B2B11F629813A818DA19EA1B9010E941B07AB960FB6F894DEBF0FBECDBF86
:20102000DF91CF910895CF93DF9300D0CDB7DEB79A83898389819A8161EC71E00E941B07D6
:201040000F900F90DF91CF910895CF93DF9300D000D0CDB7DEB79A8389837C836B838B8136
:201060009C81FC0180819181FC012081318149815A818B819C81BA01F90109950F900F9094
:201080000F900F90DF91CF910895CF93DF9300D000D000D0CDB7DEB79C838B837E836D832A
:2010A0002D813E818B819C81B9010E9425089A8389838B819C810E9413089C0189819A8140
:2010C000820F931F9A83898389819A8126960FB6F894DEBF0FBECDBFDF91CF910895CF93AD
:2010E000DF93CDB7DEB728970FB6F894DEBF0FBECDBF9A8389834B835C836D837E833887D9
:201100002F838F819885892B79F489819A81FC0180819181FC01208131814B8189819A8159
:20112000642FF90109950CC02F818B819C81AD81BE81E981FA81AC01BD01CF010E94A60703
:2011400028960FB6F894DEBF0FBECDBFDF91CF910895CF93DF93CDB7DEB72A970FB6F8941E
:20116000DEBF0FBECDBF9C838B834D835E836F8378873A87298729853A858D819E81AF816F
:20118000B885EB81FC81AC01BD01CF010E946F089A8389838B819C810E9413089C0189811F
:2011A0009A81820F931F9A83898389819A812A960FB6F894DEBF0FBECDBFDF91CF9108950F
:2011C000CF93DF9300D000D000D0CDB7DEB79A8389837C836B835E834D838B819C81CC01F5
:2011E000A0E0B0E02D813E81E981FA81AC01BD01CF010E946F0826960FB6F894DEBF0FBEC2
:20120000CDBFDF91CF910895CF93DF93CDB7DEB728970FB6F894DEBF0FBECDBF9C838B83B5
:201220007E836D8358874F834F8158852D813E818B819C81B9010E94E0089A8389838B8150
:201240009C810E9413089C0189819A81820F931F9A83898389819A8128960FB6F894DEBFB5
:201260000FBECDBFDF91CF910895CF93DF9300D000D01F92CDB7DEB79A8389836B835D8373
:201280004C838B81882F90E0A0E0B0E02C813D81E981FA81AC01BD01CF010E946F080F90F9
:2012A0000F900F900F900F90DF91CF910895CF93DF9300D000D000D01F92CDB7DEB79C8318
:2012C0008B836D835F834E832E813F818B819C81A9016D810E9435099A8389838B819C81FB
:2012E0000E9413089C0189819A81820F931F9A83898389819A8127960FB6F894DEBF0FBE66
:20130000CDBFDF91CF910895CF93DF9300D01F92CDB7DEB79A8389836B8389819A81FC012D
:2013200080819181FC01208131814B8189819A81642FF90109950F900F900F90DF91CF9181
:201340000895CF93DF9300D000D01F92CDB7DEB79C838B836D838B819C816D810E9484094F
:201360009A8389838B819C810E9413089C0189819A81820F931F9A83898389819A810F906C
:201380000F900F900F900F90DF91CF910895CF93DF93CDB7DEB72A970FB6F894DEBF0FBEFB
:2013A000CDBF9C838B834D835E836F8378873A87298789859A85892B79F48B819C81FC01ED
:2013C00080819181FC01208131814D818B819C81642FF90109954BC089859A850A97D9F5E1
:2013E0008D819E81AF81B885BB2344F58B819C816DE20E9484099A8389838D819E81AF810F
:20140000B885B095A095909581959F4FAF4FBF4F8D839E83AF83B8878D819E81AF81B885A4
:20142000EB81FC812AE0AC01BD01CF010E94A6079C0189819A81820F931F19C08D819E8124
:20144000AF81B885EB81FC812AE0AC01BD01CF010E94A6070CC029858D819E81AF81B8858E
:20146000EB81FC81AC01BD01CF010E94A6072A960FB6F894DEBF0FBECDBFDF91CF91089585
:20148000CF93DF93CDB7DEB72A970FB6F894DEBF0FBECDBF9C838B834D835E836F83788788
:2014A0003A87298729853A858D819E81AF81B885EB81FC81AC01BD01CF010E94C7099A8301
:2014C00089838B819C810E9413089C0189819A81820F931F9A83898389819A812A960FB642
:2014E000F894DEBF0FBECDBFDF91CF910895CF93DF9300D000D000D0CDB7DEB79A83898377
:201500007C836B835E834D838B819C81092E000CAA0BBB0B2D813E81E981FA81AC01BD0189
:20152000CF010E94C70926960FB6F894DEBF0FBECDBFDF91CF910895CF93DF93CDB7DEB70C
:2015400028970FB6F894DEBF0FBECDBF9C838B837E836D8358874F834F8158852D813E819C
:201560008B819C81B9010E94770A9A8389838B819C810E9413089C0189819A81820F931F51
:201580009A83898389819A8128960FB6F894DEBF0FBECDBFDF91CF910895CF93DF9300D0E7
:2015A00000D0CDB7DEB79A8389837C836B832B813C8189819A81B9010E941B070F900F90E2
:2015C0000F900F90DF91CF910895CF92DF92EF92FF921F93CF93DF93CDB7DEB768970FB619
:2015E000F894DEBF0FBECDBF9B8B8A8B4C8B5D8B6E8B7F8B288F1A8219822C893D894E892C
:201600005F896C897D898E899F890E94CD20882311F081E001C080E0882339F08A899B89E0
:2016200064EC71E00E94CD0A39C18C899D89AE89BF896C017D01E894F7F811E02FEF3FEF49
:201640004FE75FE7C701B6010E94CD20882359F42FEF3FEF4FE75FE7C701B6010E94031FFD
:2016600018160CF410E081E08127882F90E08170882339F08A899B8968EC71E00E94CD0A02
:201680000DC12FEF3FEF4FE75FE46C897D898E899F890E945B2018163CF48A899B896CEC73
:2016A00071E00E94CD0AFAC02FEF3FEF4FE75FEC6C897D898E899F890E94031F88233CF400
:2016C0008A899B896CEC71E00E94CD0AE7C020E030E0A9016C897D898E899F890E94031F52
:2016E0008823ACF48A899B896DE20E9484099C0189819A81820F931F9A8389838C899D8981
:20170000AE89BF89B0588C8B9D8BAE8BBF8B80E090E0A0E0BFE38B839C83AD83BE831F824F
:201720009F81888D9817A0F420E030E040E251E46B817C818D819E810E94081FDC01CB0142
:201740008B839C83AD83BE838F818F5F8F83E8CF2B813C814D815E816C897D898E899F89D4
:201760000E94971EDC01CB018C8B9D8BAE8BBF8B6C897D898E899F890E947A1FDC01CB0189
:201780008C879D87AE87BF876C857D858E859F850E94A91FDC01CB019C01AD016C897D8914
:2017A0008E899F890E94961EDC01CB0188879987AA87BB878C859D85AE85BF85EA89FB89A8
:2017C0002AE030E0AC01BD01CF010E946F089C0189819A81820F931F9A838983888D8823AD
:2017E00061F08A899B896EE20E9484099C0189819A81820F931F9A838983888D9FEF980F6A
:20180000988F91E0882309F490E0992309F444C020E030E040E251E4688579858A859B85DA
:201820000E946020DC01CB0188879987AA87BB87688579858A859B850E947A1FDC01CB013D
:20184000998B888B288939898A899B894AE050E0B9010E94E0089C0189819A81820F931F04
:201860009A83898388899989CC01A0E0B0E0BC01CD010E94A91FDC01CB019C01AD01688559
:2018800079858A859B850E94961EDC01CB0188879987AA87BB87B1CF89819A8168960FB612
:2018A000F894DEBF0FBECDBFDF91CF911F91FF90EF90DF90CF900895CF93DF93CDB7DEB7C0
:2018C00028970FB6F894DEBF0FBECDBF9A8389834B835C836D837E8338872F832F818B810E
:2018E0009C81AD81BE81E981FA81AC01BD01CF010E94E50A28960FB6F894DEBF0FBECDBFA8
:20190000DF91CF910895CF93DF93CDB7DEB72A970FB6F894DEBF0FBECDBF9C838B834D8368
:201920005E836F8378873A87298729853A858D819E81AF81B885EB81FC81AC01BD01CF0139
:201940000E945C0C9A8389838B819C810E9413089C0189819A81820F931F9A838983898136
:201960009A812A960FB6F894DEBF0FBECDBFDF91CF910895CF93DF9300D000D000D0CDB710
:20198000DEB79C838B837E836D832D813E818B819C81B9010E94CD0A9A8389838B819C8179
:2019A0000E9413089C0189819A81820F931F9A83898389819A8126960FB6F894DEBF0FBEA0
:2019C000CDBFDF91CF9108950F931F93CF93DF9300D000D0CDB7DEB79A8389837C836B8317
:2019E0008B819C810E9410018C018B819C810E94FF009C0189819A81A801B9010E94D80015
:201A00000F900F900F900F90DF91CF911F910F910895CF93DF9300D000D000D0CDB7DEB730
:201A20009C838B837E836D832D813E818B819C81B9010E94E40C9A8389838B819C810E94B2
:201A400013089C0189819A81820F931F9A83898389819A8126960FB6F894DEBF0FBECDBF15
:201A6000DF91CF910895CF93DF93CDB7DEB72C970FB6F894DEBF0FBECDBF9A8789877C87CE
:201A80006B878B859C859A8389831C821B8289819A819C012F5F3F4F3A8329839E838D8347
:201AA0008D819E81FC0184918F838F81888788858823C9F089859A85FC0180819181FC010B
:201AC0002081318189859A856885F901099521E0892B09F420E0222331F08B819C81019629
:201AE0009C838B83D4CF8B819C812C960FB6F894DEBF0FBECDBFDF91CF910895CF93DF93A3
:201B000000D000D000D0CDB7DEB79C838B837E836D832D813E818B819C81B9010E94330DEC
:201B20009A8389838B819C810E9413089C0189819A81820F931F9A83898389819A81269687
:201B40000FB6F894DEBF0FBECDBFDF91CF9108951F920F920FB60F9211242F933F938F932E
:201B60009F93AF93BF9380916A0390916B03A0916C03B0916D033091690323E0230F2D377B
:201B800058F50196A11DB11D2093690380936A0390936B03A0936C03B0936D0380916E03CE
:201BA00090916F03A0917003B09171030196A11DB11D80936E0390936F03A0937003B09314
:201BC0007103BF91AF919F918F913F912F910F900FBE0F901F90189526E8230F0296A11D24
:201BE000B11DD2CFCF93DF9300D000D000D0CDB7DEB79A8389836B835D834C832E83898198
:201C00009A812B81FC01208389819A812C813D81FC013483238389819A812E81FC012583FA
:201C200026960FB6F894DEBF0FBECDBFDF91CF910895CF93DF9300D01F92CDB7DEB79A83A9
:201C400089836B8389819A812B81FC01208389819A812FEF3FEFFC013283218389819A812D
:201C6000FC011482138289819A81FC0115820F900F900F90DF91CF910895CF93DF9300D095
:201C8000CDB7DEB79A83898389819A81FC01108289819A81FC011482138289819A81FC01DF
:201CA00015820F900F90DF91CF910895CF93DF9300D000D01F92CDB7DEB79A8389836B838D
:201CC0005D834C838B81282F30E049815A81C901880F991F820F931F880F991F840F951F4B
:201CE0004F962C813D81FC01318320838B81282F30E049815A81C901880F991F820F931FCC
:201D0000880F991F840F951F819621E0FC01208389819A8184599F4FFC0180818823D1F01B
:201D200089819A8183599F4FFC0180819181892BA1F18B81882389F589819A8183599F4F3A
:201D4000FC012081318189819A81FC01848DF901099523C089819A8183599F4FFC01808198
:201D60009181892BD1F089819A8183599F4FFC01408151818B81282F30E069817A81C9013B
:201D8000880F991F820F931F880F991F860F971F4C96FC018081FA0109950F900F900F90C1
:201DA0000F900F90DF91CF910895CF93DF9300D000D0CDB7DEB79A8389837C836B838981CB
:201DC0009A8183599F4F2B813C81FC01318320830F900F900F900F90DF91CF910895CF9316
:201DE000DF9300D000D0CDB7DEB79A8389837C836B8389819A8186599F4F2B813C81FC014A
:201E0000318320830F900F900F900F90DF91CF910895CF93DF9300D000D0CDB7DEB79A83D8
:201E200089837C836B838B819C81892B51F489819A8188599F4F21E030E0FC01318320832E
:201E400009C089819A8188599F4F2B813C81FC01318320830F900F900F900F90DF91CF91BC
:201E60000895CF93DF9300D0CDB7DEB79A8389838AE00F900F90DF91CF910895CF93DF93F6
:201E800000D0CDB7DEB79A83898389819A81FC0181A10F900F90DF91CF910895CF93DF936D
:201EA00000D0CDB7DEB79A83898389819A81FC01878D90A10F900F90DF91CF910895CF939C
:201EC000DF9300D000D01F92CDB7DEB79B838A837D836C83198289818A30F8F48981282F60
:201EE00030E04A815B81C901880F991F820F931F880F991F840F951F4D96FC018081918146
:201F00002C813D812817390721F48981882F90E006C089818F5F8983DECF8FEF9FEF0F906F
:201F20000F900F900F900F90DF91CF910895CF93DF9300D000D0CDB7DEB79B838A836C8311
:201F4000198289818A30E0F48981282F30E04A815B81C901880F991F820F931F880F991F8B
:201F6000840F951F4C96FC0180819C81981721F48981882F90E006C089818F5F8983E1CFAE
:201F80008FEF9FEF0F900F900F900F90DF91CF910895CF93DF9300D000D0CDB7DEB79B83A1
:201FA0008A836C83198289818A3008F041C08981282F30E04A815B81C901880F991F820F0B
:201FC000931F880F991F840F951F4C96FC0180819C81981749F58981282F30E04A815B81B7
:201FE000C901880F991F820F931F880F991F840F951F4F96FC01808191810197A9F48981BB
:20200000282F30E04A815B81C901880F991F820F931F880F991F840F951F8196FC018081AB
:20202000882311F081E005C089818F5F8983BBCF80E00F900F900F900F90DF91CF910895F7
:20204000CF93DF9300D000D0CDB7DEB79A8389836B834C838B81282F30E049815A81C9012B
:20206000880F991F820F931F880F991F840F951F8196FC0110828B81282F30E049815A817A
:20208000C901880F991F820F931F880F991F840F951F4F96FC01808191818130910539F1E8
:2020A000823091051CF4892B49F074C08230910509F456C0039709F460C06CC08C818823B1
:2020C00009F463C089819A8141E050E06B810E94560E0E947A02DC01CB0129813A81285ACA
:2020E0003F4FF90180839183A283B38353C00E947A029B01AC0189819A81885A9F4FFC017A
:2021000080819181A281B381281B390B4A0B5B0B89819A8186599F4FFC0180819181CC0144
:20212000A0E0B0E061E082179307A407B50708F060E0662341F089819A8142E050E06B815F
:202140000E94560E24C09C8181E089278823F9F089819A8143E050E06B810E94560E1AC08F
:202160009C8181E089278823A1F089819A8143E050E06B810E94560E0DC089819A8140E079
:2021800050E06B810E94560E05C0000003C0000001C000000F900F900F900F90DF91CF9188
:2021A0000895CF93DF93CDB7DEB72E970FB6F894DEBF0FBECDBF9E878D8719821A828A810E
:2021C0008A3008F04EC08A81282F30E04D855E85C901880F991F820F931F880F991F840FDA
:2021E000951F4F96FC0180819181892BB1F58A81282F30E04D855E85C901880F991F820F0B
:20220000931F880F991F840F951F4C96FC0110828A81282F30E04D855E85C901880F991FC5
:20222000820F931F880F991F840F951F4D962FEF3FEFFC01318320838A81282F30E04D85FE
:202240005E85C901880F991F820F931F880F991F840F951F8196FC0110828A818F5F8A83FD
:20226000AECF1B828D859E858A599F4FFC0180819B81981708F0E4C01C828D859E85895924
:202280009F4FFC0180819C81981708F0D5C08B81882F90E02D853E850496880F991F820FD7
:2022A000931FFC01808191812C81222F30E002C0969587952A95E2F78170992721E0892B47
:2022C00009F420E02F838D859E85805A9F4FFC01808191812B81622F70E02D853E852959BE
:2022E0003F4FF9012081222F30E0629FA001639F500D729F500D11242C81222F30E0240F6F
:20230000351F820F931FFC01808188878B81482F50E08D859E8589599F4FFC018081882FAC
:2023200090E0489F9001499F300D589F300D11248C81882F90E0820F931F9A8789872985D1
:202340003A858D859E85B9010E945F0F9C878B878B859C8599233CF02B858D859E854F81BC
:20236000622F0E9420108B859C85019609F060C08F81882309F45CC01D828D818A3008F0E6
:2023800057C08D81282F30E04D855E85C901880F991F820F931F880F991F840F951F4C9628
:2023A000FC018081882309F03FC08D81282F30E04D855E85C901880F991F820F931F880F5F
:2023C000991F840F951F4C962885FC0120838D81282F30E04D855E85C901880F991F820FFB
:2023E000931F880F991F840F951F4D9629853A85FC01318320838D81282F30E04D855E85C7
:20240000C901880F991F820F931F880F991F840F951F4F96FC01118210828D859E854F81BE
:202420006D810E94201004C08D818F5F8D83A5CF8C818F5F8C8321CF8B818F5F8B8312CFB5
:202440001E828E818A30C8F48E81282F30E04D855E85C901880F991F820F931F880F991F81
:20246000840F951F8196FC018081882311F081E089838E818F5F8E83E4CF89812E960FB693
:20248000F894DEBF0FBECDBFDF91CF910895CF93DF9300D000D01F92CDB7DEB79D838C83E0
:2024A00019828C819D818A599F4FFC0180819981981700F58C819D81FC0180819181FC0191
:2024C000208131818C819D818E599F4FFC01408151818981882F90E0840F951FFC015081D3
:2024E0008C819D8142E0652FF901099589818F5F8983D7CF1A828C819D8189599F4FFC0125
:2025000080819A81981708F0FCC08C819D81FC0180819181FC01208131818C819D818C59A1
:202520009F4FFC01408151818A81882F90E0840F951FFC0150818C819D8141E0652FF901FC
:2025400009958C819D81FC01808191810296FC01208131818C819D818C599F4FFC014081FE
:2025600051818A81882F90E0840F951FFC0150818C819D8140E0652FF90109951B828C8121
:202580009D818A599F4FFC0180819B81981708F07BC08C819D81FC01808191810496FC017E
:2025A000208131818C819D818E599F4FFC01408151818B81882F90E0840F951FFC01408100
:2025C0008C819D81642FF9010995892B61F58B81882F90E02C813D810496880F991F820F83
:2025E000931FFC01208131818A81482F50E081E090E0A0E0B0E004C0880F991FAA1FBB1F90
:202600004A95D2F7AC018B81882F90E0242B352B4C815D810496880F991F840F951FFC01AB
:20262000318320832DC08B81882F90E02C813D810496880F991F820F931FFC0140815181FC
:202640008A81282F30E081E090E0A0E0B0E004C0880F991FAA1FBB1F2A95D2F79C01209597
:2026600030958B81882F90E0242335234C815D810496880F991F840F951FFC013183208394
:202680008B818F5F8B837BCF8C819D81FC01808191810296FC01208131818C819D818C59B5
:2026A0009F4FFC01408151818A81882F90E0840F951FFC0150818C819D8141E0652FF9017B
:2026C00009958C819D81FC0180819181FC01208131818C819D818C599F4FFC014081518143
:2026E0008A81882F90E0840F951FFC0150818C819D8140E0652FF90109958A818F5F8A8316
:20270000FACE0F900F900F900F900F90DF91CF910895CF93DF9300D01F92CDB7DEB79B83DD
:202720008A8319820E947A029B01AC018A819B81845A9F4FFC0180819181A281B381281BED
:20274000390B4A0B5B0B8A819B8188599F4FFC0180819181CC01A0E0B0E061E08217930723
:20276000A407B50708F060E06623B1F08A819B810E9447128A819B810E94D11089830E9416
:202780007A02DC01CB012A813B81245A3F4FF90180839183A283B38389810F900F900F904E
:2027A000DF91CF910895CF93DF9300D0CDB7DEB79A83898389819A8184599F4F21E0FC01D8
:2027C000208389819A810E948913882379F089819A81FC0181A1882349F089819A81FC0195
:2027E000878D90A1019711F481E001C080E0882329F089819A81FC01848D07C089819A8192
:2028000084599F4FFC01108280E00F900F90DF91CF910895CF93DF9300D01F92CDB7DEB7E5
:202820009B838A8319828A819B810E94D313898381E09981992309F080E08823A1F789813A
:202840000F900F900F90DF91CF910895CF93DF9300D000D0CDB7DEB79A8389837C836B838B
:2028600089819A81805A9F4F2B813C81FC01318320830F900F900F900F90DF91CF910895C5
:20288000EF92FF920F931F93CF93DF93CDB7DEB72A970FB6F894DEBF0FBECDBF9A838983B4
:2028A0007C836B835E834D8338872F830987EA8689819A8102960E943D0E2BEB31E089812E
:2028C0009A81FC013183208389819A814C9609E010E07C0111234CF0C7010E943D0EF6E031
:2028E000EF0EF11C01501109F5CF89819A818E599F4F2D813E81FC013183208389819A81BF
:202900008C599F4F2F813885FC013183208389819A818A599F4F2985FC01208389819A81BA
:2029200089599F4F2A85FC0120832B813C8189819A81B9010E94261489819A816AE070E095
:202940000E94090F89819A8164EF71E00E94EF0E89819A8183599F4FFC011182108289813A
:202960009A81845A9F4FFC01108211821282138289819A8184599F4FFC0110822A960FB621
:20298000F894DEBF0FBECDBFDF91CF911F910F91FF90EF900895CF93DF9300D000D0CDB7F2
:2029A000DEB79A8389837C836B8389819A812B813C81B9010E94CD0A0F900F900F900F902F
:2029C000DF91CF910895CF93DF9300D0CDB7DEB79A83898389819A81FC01938581E0983041
:2029E00009F080E00F900F90DF91CF9108950F93CF93DF9300D000D000D0CDB7DEB79A83B7
:202A000089836B834C832D830E8389819A810E9489062FEA31E089819A81FC0131832083B3
:202A200089819A812B81FC01248389819A812C81FC01208789819A812D81FC012187898129
:202A40009A812E81FC01228789819A8128E0FC01238726960FB6F894DEBF0FBECDBFDF91BF
:202A6000CF910F9108951F920F920FB60F9211242F933F934F935F936F937F938F939F93FC
:202A8000AF93BF93EF93FF938091B900887F803609F44AC0F0F5883209F4A7C018F580313F
:202AA00009F49BC0B8F4882309F4F9C0883009F494C0FF91EF91BF91AF919F918F917F91A8
:202AC0006F915F914F913F912F910F900FBE0F901F901895883109F488C0803251F7809324
:202AE000360314C0803409F49DC040F48033B9F38833F9F68093360385ECB0C0803509F49F
:202B000085C0883509F496C0883499F60E944C07D0CF883909F48CC038F5883729F050F42E
:202B2000883611F0803729F683E0809337031092350357C0883809F47BC0803919F08038ED
:202B400009F0B7CF80913503803208F071C0E091350381E08E0F809335038091BB00F0E044
:202B6000EB5EFC4F80833DC0803B39F0E0F4803A09F479C0883A09F09CCF84E08093370342
:202B80001092120310921103E0910F03F091100309958091110381110FC081E08093110305
:202BA0001092EF0209C0803C09F4A6CF883C09F4A3CF883B09F07DCFE091120381E08E0FCC
:202BC00080931203F0E0E151FD4F80818093BB00909112038091110329C080915C038093E9
:202BE000BB0085EC8093BC0064CF90915B0380915A03981758F5E0915B0381E08E0F8093DE
:202C00005B03F0E0E65CFC4F8081E9CFE0915B0381E08E0F80935B038091BB00F0E0E65C24
:202C2000FC4F808390915B0380915A039817C8F285E8D8CFE0915B0381E08E0F80935B039E
:202C40008091BB00F0E0E65CFC4F80838091390381115CCF81E08093380384EA8093BC0052
:202C60001092370326CF85EC8093BC001092370380913503803230F4E0913503F0E0EB5E86
:202C8000FC4F10826091350370E0E0911303F091140385E193E00995109235030ACF1092F3
:202CA000360334CFCF93DF93CDB7DEB76FEF7FEF81E090E00E94A21CDF91CF910895CF931F
:202CC000DF9300D000D0CDB7DEB79A8389837C836B838B819C819093E8028093E7020F90E2
:202CE0000F900F900F90DF91CF910895CF93DF9300D000D0CDB7DEB79A8389837C836B83E7
:202D00008B819C819093E6028093E5020F900F900F900F90DF91CF9108950F93CF93DF9326
:202D200000D000D0CDB7DEB79B838A836C839091E30280919F020C8121E0492F60EA72E066
:202D40000E947F0389831092E4021092E3021092C00289810F900F900F900F90DF91CF917A
:202D60000F910895CF93DF9300D0CDB7DEB79A83898389819A8161E00E948D160F900F9047
:202D8000DF91CF910895CF93DF9300D01F92CDB7DEB79A8389836B8381E08093C0028B81FF
:202DA00080939F021092E4021092E3020F900F900F90DF91CF910895CF93DF9300D01F92B1
:202DC000CDB7DEB79A8389836B8389819A81FC018481682F8DE593E00E94C31689819A8180
:202DE000FC0193858B81892B882F90E0BC018DE593E00E94C3028DE593E00E94B2160F90E0
:202E00000F900F90DF91CF910895CF93DF9300D01F92CDB7DEB79A8389836B838B81282F1F
:202E2000246089819A81622F0E94DC1681E090E00E9417028B81282F2B7F89819A81622F75
:202E40000E94DC1682E390E00E9417020F900F900F90DF91CF910895CF93DF9300D01F92AF
:202E6000CDB7DEB79A8389836B8389819A816B810E94DC1689819A816B810E9405170F900F
:202E80000F900F90DF91CF910895CF93DF9300D000D000D0CDB7DEB79C838B836D834E833C
:202EA0008D81807F89838D81882F90E082959295907F9827807F98278A8399818E81292F6C
:202EC000282B8B819C81622F0E942C179A818E81292F282B8B819C81622F0E942C172696D0
:202EE0000FB6F894DEBF0FBECDBFDF91CF910895CF93DF9300D01F92CDB7DEB79A83898387
:202F00006B8389819A8141E06B810E94451781E090E00F900F900F90DF91CF910895CF9316
:202F2000DF9300D01F92CDB7DEB79A8389836B8389819A8140E06B810E9445170F900F9001
:202F40000F90DF91CF910895CF93DF9300D000D000D01F92CDB7DEB79C838B836D835F8358
:202F60004E838D8187708D838D81882F90E0880F991F880F991F880F991F8064282F8B8102
:202F80009C81622F0E948F171A82198289819A810897DCF48B819C81FC0180819181FC013A
:202FA0002081318189819A814E815F81840F951FFC0140818B819C81642FF9010995898187
:202FC0009A8101969A838983E1CF27960FB6F894DEBF0FBECDBFDF91CF910895CF93DF9321
:202FE00000D000D01F92CDB7DEB79A8389836B835D834C832C813D8189819A81A9016B817B
:203000000E94A4170F900F900F900F900F90DF91CF910895CF93DF9300D0CDB7DEB79A83F1
:20302000898389819A81FC018781282F2E7F89819A81FC01278389819A81FC018781282F09
:20304000246089819A81622F0E948F170F900F90DF91CF910895CF93DF9300D0CDB7DEB786
:203060009A83898389819A81FC018781282F216089819A81FC01278389819A81FC0187812F
:20308000282F246089819A81622F0E948F170F900F90DF91CF910895CF93DF9300D0CDB784
:2030A000DEB79A83898389819A81FC018781282F2D7F89819A81FC01278389819A81FC0137
:2030C0008781282F246089819A81622F0E948F170F900F90DF91CF910895CF93DF9300D0C0
:2030E000CDB7DEB79A83898389819A81FC018781282F226089819A81FC01278389819A819A
:20310000FC018781282F246089819A81622F0E948F170F900F90DF91CF910895CF93DF9352
:2031200000D0CDB7DEB79A83898389819A816CE10E948F170F900F90DF91CF910895CF93B6
:20314000DF9300D0CDB7DEB79A83898389819A8168E10E948F170F900F90DF91CF9108958A
:20316000CF93DF9300D0CDB7DEB79A83898389819A81FC018681282F216089819A81FC0146
:20318000268389819A81FC018681282F286089819A81622F0E948F170F900F90DF91CF9172
:2031A0000895CF93DF9300D0CDB7DEB79A83898389819A81FC018681282F2E7F89819A813A
:2031C000FC01268389819A81FC018681282F286089819A81622F0E948F170F900F90DF9195
:2031E000CF910895CF93DF9300D0CDB7DEB79A83898389819A81FC018681282F22608981E0
:203200009A81FC01268389819A81FC018681282F286089819A81622F0E948F170F900F90A9
:20322000DF91CF910895CF93DF9300D0CDB7DEB79A83898389819A81FC018681282F2D7F0F
:2032400089819A81FC01268389819A81FC018681282F286089819A81622F0E948F170F90FE
:203260000F90DF91CF910895CF93DF9300D0CDB7DEB79A83898389819A81FC018681282FDC
:20328000246089819A81FC01268389819A81FC018681282F286089819A81622F0E948F17D9
:2032A0000F900F90DF91CF910895CF93DF9300D0CDB7DEB79A83898389819A81FC01868154
:2032C000282F2B7F89819A81FC01268389819A81FC018681282F286089819A81622F0E94C2
:2032E0008F170F900F90DF91CF910895CF93DF93CDB7DEB72C970FB6F894DEBF0FBECDBF86
:203300009A8789876B874C8728E0E2E0F1E0CE010196DC0101900D922A95E1F789859A85E5
:20332000FC0181859C85891730F489859A85FC01818581508C878C85882F90E0880F991F0A
:203340009E012F5F3F4F820F931FFC0180819181982F8B85890F8068282F89859A85622FF3
:203360000E948F172C960FB6F894DEBF0FBECDBFDF91CF910895CF93DF9300D0CDB7DEB7D2
:203380009A83898389819A8162E00E948F1780ED97E00E9417020F900F90DF91CF9108950B
:2033A000CF93DF9300D0CDB7DEB79A83898389819A8161E00E948F1780ED97E00E941702DA
:2033C0000F900F90DF91CF910895CF93DF9300D0CDB7DEB79A83898389819A8128E0FC0132
:2033E000238789819A8160E00E94DC160F900F90DF91CF910895CF93DF9300D0CDB7DEB7C2
:203400009A83898389819A81FC01138689819A8160E00E94DC160F900F90DF91CF91089524
:20342000CF93DF9300D01F92CDB7DEB79A8389836B838B81882329F089819A810E94E51972
:2034400004C089819A810E94FB190F900F900F90DF91CF910895CF93DF9300D000D0CDB78B
:20346000DEB79A8389837C836B832B8189819A81622F0E94C3160F900F900F900F90DF91D8
:20348000CF910895CF92EF920F931F93CF93DF93CDB7DEB72B970FB6F894DEBF0FBECDBF03
:2034A0009B838A836C834D830E831F8328873987EA86CB868A858823E9F18A819B816C8117
:2034C0000E94C3168A85843010F083E08A878A859FEF980F9A8791E0882309F490E0992390
:2034E00021F18A819B81FC0180819181FC01208131818A85882F90E0AC01440F551F440F36
:20350000551F440F551F8E819F81A885B98504C0B695A795979587954A95D2F7482F8A8119
:203520009B81642FF9010995D2CF8A819B8160E00E948D168D81813210F080E28D832B8514
:203540004D8161EC72E08C810E94710489831092E20289818093E10289812B960FB6F8942C
:20356000DEBF0FBECDBFDF91CF911F910F91EF90CF900895CF92EF920F931F93CF93DF93B0
:2035800000D000D01F92CDB7DEB79A8389836B834C832D8389819A81CD80E12C00E010E0DC
:2035A00098014C816B810E94421A0F900F900F900F900F90DF91CF911F910F91EF90CF90A2
:2035C0000895CF93DF93CDB7DEB728970FB6F894DEBF0FBECDBF9A8389837C836B835E8364
:2035E0004D8338872F832F814D813B8189819A81632F0E94BA1A28960FB6F894DEBF0FBEAA
:20360000CDBFDF91CF910895CF93DF9300D000D000D0CDB7DEB79A8389837C836B835E835D
:203620004D834D813B8189819A8121E0632F0E94BA1A26960FB6F894DEBF0FBECDBFDF918F
:20364000CF910895CF93DF9300D000D0CDB7DEB79A8389836B834C8389819A8121E04C8107
:203660006B810E94BA1A0F900F900F900F90DF91CF910895CF93DF9300D0CDB7DEB79A8325
:20368000898381E00E94E2020F900F90DF91CF910895CF93DF9300D0CDB7DEB79A838983A6
:2036A00080E00E94E2020F900F90DF91CF910895CF93DF9300D000D000D01F92CDB7DEB76B
:2036C0009A8389834B835C836D837E832F838B819C81AD81BE814F81BC01CD010E94E902F3
:2036E00027960FB6F894DEBF0FBECDBFDF91CF910895CF93DF9300D000D000D0CDB7DEB7FC
:203700009A8389834B835C836D837E838B819C81AD81BE81BC01CD010E94270326960FB674
:20372000F894DEBF0FBECDBFDF91CF910895CF93DF9300D0CDB7DEB79A8389830E943E03D1
:203740000F900F90DF91CF910895CF93DF9300D0CDB7DEB79A8389831092E2021092E102CD
:203760001092E4021092E3020E944B038FE495E00E94F60286E695E00E94FB020F900F900A
:20378000DF91CF910895CF93DF9300D0CDB7DEB79A8389838DE593E00E94A51B89819A816A
:2037A000FC01158289819A81FC018185823050F089819A81FC018581282F286089819A812F
:2037C000FC01258389819A81FC018285882381F089819A81FC018185813051F489819A81BC
:2037E000FC018581282F246089819A81FC01258362E370E080E090E00E94470289819A81AC
:20380000FC01238589819A81622F0E94DC1668EE73E080E090E00E94470289819A8160E3ED
:203820000E942C1784E991E10E94170289819A8160E30E942C1784E991E10E941702898118
:203840009A8160E30E942C1786E990E00E94170289819A8160E20E942C1789819A81FC011D
:203860008581282F206289819A81622F0E948F1789819A8124E0FC01268389819A810E94D5
:20388000341989819A810E94D01989819A8122E0FC01278389819A81FC018781282F246058
:2038A00089819A81622F0E948F1789819A810E94BB190F900F90DF91CF910895CF93DF93F0
:2038C00000D01F92CDB7DEB79A8389836B8389819A810E94A51B8B810E943A030F900F9087
:2038E0000F90DF91CF910895CF93DF9300D000D0CDB7DEB79A8389837C836B832B81898163
:203900009A81622F0E945E1C0F900F900F900F90DF91CF910895CF93DF9300D0CDB7DEB739
:203920009A83898389819A810E94A1062DE931E089819A81FC01318320830F900F90DF91A2
:20394000CF910895CF93DF9300D000D0CDB7DEB79A8389837C836B8389819A81019741F4D5
:203960008B819C81019621F48DE593E00E948B1C0F900F900F900F90DF91CF910895CF93F9
:20398000DF93CDB7DEB76FEF7FEF81E090E00E94CC1CDF91CF910895EF920F93CF93DF9311
:2039A00000D000D0CDB7DEB79A8389837C836B8389819A810197D1F48B819C810196B1F451
:2039C00000E022E040E167E283E992E00E94F7146894EE24E2F804E023E631E047E651E0CC
:2039E0006BE671E084E292E00E9440140F900F900F900F90DF91CF910F91EF900895CF93ED
:203A0000DF931F92CDB7DEB71982809115029981892789838981873311F080E08DC080914E
:203A200016029981892789838981843011F080E083C0809117029981892789838981873372
:203A400011F080E079C0809118029981892789838981823011F080E06FC080911902998139
:203A6000892789838981873311F080E065C080911A029981892789838981813011F080E021
:203A80005BC080911B029981892789838981873311F080E051C080911C02998189278983CC
:203AA0008981813011F080E047C080911D029981892789838981813311F080E03DC08091B0
:203AC0001E029981892789838981873011F080E033C080911F029981892789838981813315
:203AE00011F080E029C0809120029981892789838981883011F080E01FC080912102998123
:203B0000892789838981813311F080E015C0809122029981892789838981883011F080E0C7
:203B20000BC08091230299818927898389818A3311F080E001C081E00F90DF91CF91089558
:203B4000CF93DF9300D000D0CDB7DEB783E992E00E94D01960ED71E083E992E00E94CD0A7A
:203B600041E060E083E992E00E94761961EE71E083E992E00E94CD0A41E061E083E992E09E
:203B80000E94761981E090E09A83898389819A8140975CF460E283E992E00E948409898155
:203BA0009A8101969A838983F1CF41E061E083E992E00E9476191C821B828B819C814097BE
:203BC00064F48B819C818C5E9D4FFC0110828B819C8101969C838B83F0CF81E090E090935F
:203BE0000101809300010F900F900F900F90DF91CF910895CF93DF931F92CDB7DEB784E2C2
:203C000092E00E94D31389838981882309F45EC08981082E000C990B8334910539F08335B0
:203C2000910539F0809709F450C031C00E94A01D4DC00E94FF1C8823B9F083E992E00E94B3
:203C4000D01963EE71E083E992E00E94CD0A41E060E083E992E00E94761963EF71E083E903
:203C600092E00E94CD0A32C083E992E00E94D01964E072E083E992E00E94CD0A68EE73E068
:203C800080E090E00E9447020E94A01D1FC080910001909101014097CCF4698183E992E097
:203CA0000E94840980910001909101018C5E9D4F2981FC01208380910001909101010196B4
:203CC000909301018093000101C000000F90DF91CF910895CF93DF93CDB7DEB783E992E013
:203CE0000E94C31B83E992E00E94E51983E992E00E94B0180E94A01DDF91CF910895CF9350
:203D0000DF93CDB7DEB70E94DC010E948B070E946A1E0E94FA1D80E090E0892BD1F30E9498
:203D20000000F7CF0E9452160C94BF1C5058BB27AA270E94AE1E0C9421200E94132038F091
:203D40000E941A2020F039F49F3F19F426F40C9410200EF4E095E7FB0C940A20E92F0E9498
:203D6000322058F3BA17620773078407950720F079F4A6F50C9454200EF4E0950B2EBA2F06
:203D8000A02D0B01B90190010C01CA01A0011124FF27591B99F0593F50F4503E68F11A163B
:203DA000F040A22F232F342F4427585FF3CF469537952795A795F0405395C9F77EF41F164B
:203DC000BA0B620B730B840BBAF09150A1F0FF0FBB1F661F771F881FC2F70EC0BA0F621F0D
:203DE000731F841F48F4879577956795B795F7959E3F08F0B0CF9395880F08F09927EE0F8E
:203E00009795879508950E94E61F08F481E008950E941C1F0C9421200E941A2058F00E9498
:203E2000132040F029F45F3F29F00C940A2051110C9455200C9410200E94322068F399232F
:203E4000B1F3552391F3951B550BBB27AA2762177307840738F09F5F5F4F220F331F441FC7
:203E6000AA1FA9F335D00E2E3AF0E0E832D091505040E695001CCAF72BD0FE2F29D0660F49
:203E8000771F881FBB1F261737074807AB07B0E809F0BB0B802DBF01FF2793585F4F3AF0E2
:203EA0009E3F510578F00C940A200C9455205F3FE4F3983ED4F3869577956795B795F7957B
:203EC0009F5FC9F7880F911D9695879597F90895E1E0660F771F881FBB1F621773078407A0
:203EE000BA0720F0621B730B840BBA0BEE1F88F7E09508950E943A2088F09F5798F0B92F2A
:203F00009927B751B0F0E1F0660F771F881F991F1AF0BA95C9F714C0B13091F00E94542099
:203F2000B1E008950C945420672F782F8827B85F39F0B93FCCF3869577956795B395D9F721
:203F40003EF490958095709561957F4F8F4F9F4F0895E89409C097FB3EF49095809570957B
:203F600061957F4F8F4F9F4F9923A9F0F92F96E9BB279395F695879577956795B795F111AE
:203F8000F8CFFAF4BB0F11F460FF1BC06F5F7F4F8F4F9F4F16C0882311F096E911C077238F
:203FA00021F09EE8872F762F05C0662371F096E8862F70E060E02AF09A95660F771F881FA2
:203FC000DAF7880F9695879597F90895990F0008550FAA0BE0E8FEEF16161706E807F9074F
:203FE000C0F012161306E407F50798F0621B730B840B950B39F40A2661F0232B242B252B9C
:2040000021F408950A2609F4A140A6958FEF811D811D089597F99F6780E870E060E0089523
:204020009FEF80EC089500240A941616170618060906089500240A941216130614060506EC
:204040000895092E0394000C11F4882352F0BB0F40F4BF2B11F460FF04C06F5F7F4F8F4F6D
:204060009F4F089557FD9058440F551F59F05F3F71F04795880F97FB991F61F09F3F79F015
:2040800087950895121613061406551FF2CF4695F1DF08C0161617061806991FF1CF86956A
:2040A0007105610508940895E894BB2766277727CB0197F908950E94E61F08F48FEF0895AB
:2040C0000E9473200C9421200E94132038F00E941A2020F0952311F00C940A200C9410208E
:2040E00011240C9455200E94322070F3959FC1F3950F50E0551F629FF001729FBB27F00D0D
:20410000B11D639FAA27F00DB11DAA1F649F6627B00DA11D661F829F2227B00DA11D621F74
:20412000739FB00DA11D621F839FA00D611D221F749F3327A00D611D231F849F600D211D3B
:20414000822F762F6A2F11249F5750409AF0F1F088234AF0EE0FFF1FBB1F661F771F881FAE
:2041600091505040A9F79E3F510580F00C940A200C9455205F3FE4F3983ED4F38695779573
:204180006795B795F795E7959F5FC1F7FE2B880F911D9695879597F908950E94E61F880BFD
:2041A000990B0895A1E21A2EAA1BBB1BFD010DC0AA1FBB1FEE1FFF1FA217B307E407F50765
:2041C00020F0A21BB30BE40BF50B661F771F881F991F1A9469F760957095809590959B010D
:2041E000AC01BD01CF010895EE0FFF1F0590F491E02D099481E090E0F8940C940821FC01E5
:2042000001900020E9F7809590958E0F9F1F0895F894FFCF010000004000140054000A0BC3
:204220000C0D12130E0F1011121314150004040A0B0C0D12130E0F1011121314150A0B0CAC
:204240000D12130E0F101112131415000A0B0C0D12130E0F101112131415000A0B0C0D1281
:20426000130E0F1011121314150A0B0C0D12130E0F101112131415060504030A090807206C
:204280002020203336395332353830313437430000000015078C007B066F06000000001568
:2042A000078C007B066F0615071507150700000000DB0626067B06AF050E06E205BB050024
:2042C00000000078178C007B066F0600000000AE02980286020D0A006E616E00696E66006A
:2042E0006F766600596F75722070617373776F72642E2E2E003E0057656C636F6D652C2051
:2043000061646D696E2100414953337B3C70617373776F72643E7D004861636B65722067A9
:204320006F20617761792100FFFFFFFFFFFFFFFFFFFFFFFFFFFFFFFFFFFFFFFFFFFFFFFF33
:20434000FFFFFFFFFFFFFFFFFFFFFFFFFFFFFFFFFFFFFFFFFFFFFFFFFFFFFFFFFFFFFFFF7D
:20436000FFFFFFFFFFFFFFFFFFFFFFFFFFFFFFFFFFFFFFFFFFFFFFFFFFFFFFFFFFFFFFFF5D
:20438000DEB79A8389837C836B832B8189819A81622F0E94A5210F900F900F900F90DF91BC
:2043A000CF910895CF93DF9300D0CDB7DEB79A83898389819A810E94F80729EB31E0898125
:2043C0009A81FC01318320830F900F90DF91CF910895CF93DF9300D000D0CDB7DEB79A8319
:2043E00089837C836B8389819A81019741F48B819C81019621F48DE693E00E94D2210F90E3
:204400000F900F900F90DF91CF910895CF93DF93CDB7DEB76FEF7FEF81E090E00E941322F1
:20442000DF91CF910895EF920F93CF93DF9300D000D0CDB7DEB79A8389837C836B8389813F
:204440009A810197D1F48B819C810196B1F400E022E040E167E283EA92E00E943E1A68945E
:20446000EE24E2F804E02FE731E043E851E067E871E084E392E00E9487190F900F900F9051
:204480000F90DF91CF910F91EF900895CF93DF931F92CDB7DEB719828091250299818927B6
:2044A00089838981873311F080E08DC0809126029981892789838981843011F080E083C00D
:2044C000809127029981892789838981873311F080E079C080912802998189278983898153
:2044E000823011F080E06FC0809129029981892789838981873311F080E065C080912A02E1
:204500009981892789838981813011F080E05BC080912B029981892789838981873311F0B5
:2045200080E051C080912C029981892789838981813011F080E047C080912D0299818927C8
:2045400089838981813311F080E03DC080912E029981892789838981873011F080E033C007
:2045600080912F029981892789838981813311F080E029C0809130029981892789838981F8
:20458000883011F080E01FC0809131029981892789838981813311F080E015C080913202D0
:2045A0009981892789838981883011F080E00BC08091330299818927898389818A3311F053
:2045C00080E001C081E00F90DF91CF910895CF93DF9300D000D0CDB7DEB783EA92E00E943F
:2045E000171F6EEF71E083EA92E00E94960C41E060E083EA92E00E94BD1E6FE072E083EAE9
:2046000092E00E94960C41E061E083EA92E00E94BD1E81E090E09A83898389819A81409730
:204620005CF460E283EA92E00E944D0B89819A8101969A838983F1CF41E061E083EA92E029
:204640000E94BD1E1C821B828B819C81409764F48B819C818C5D9D4FFC0110828B819C8194
:2046600001969C838B83F0CF81E090E090930101809300010F900F900F900F90DF91CF9161
:204680000895CF93DF9300D0CDB7DEB761E172E082E893E00E94960C81E090E09A83898311
:2046A000809100019091010129813A81281739078CF489819A818C5D9D4FFC018081682FD2
:2046C00082E893E00E944D0B89819A8101969A838983E6CF82E893E00E94DC090F900F90C7
:2046E000DF91CF910895CF93DF931F92CDB7DEB784E392E00E941A1989838981882309F443
:2047000041C08981082E000C990B8334910531F08335910531F08097A1F115C00E94E722A2
:2047200031C00E944622882359F083EA92E00E94171F6BE172E083EA92E00E94960C22C030
:204740000E94E7221FC080910001909101014097CCF4698183EA92E00E944D0B809100012E
:20476000909101018C5D9D4F2981FC012083809100019091010101969093010180930001F2
:2047800001C000000E9441230F90DF91CF910895CF93DF93CDB7DEB740E855E260E070E06A
:2047A00082E893E00E94021183EA92E00E940A2183EA92E00E942C1F83EA92E00E94F71D5A
:2047C0000E94E722DF91CF910895CF93DF93CDB7DEB70E9433030E9454090E94C8230E94CE
:2047E00073230E944502FBCF0E94710F0E94991B0C9406225058BB27AA270E9412240C945D
:2048000085250E94772538F00E947E2520F039F49F3F19F426F40C9474250EF4E095E7FB6F
:204820000C946E25E92F0E94962558F3BA17620773078407950720F079F4A6F50C94B82515
:204840000EF4E0950B2EBA2FA02D0B01B90190010C01CA01A0011124FF27591B99F0593F32
:2048600050F4503E68F11A16F040A22F232F342F4427585FF3CF469537952795A795F04074
:204880005395C9F77EF41F16BA0B620B730B840BBAF09150A1F0FF0FBB1F661F771F881FC4
:2048A000C2F70EC0BA0F621F731F841F48F4879577956795B795F7959E3F08F0B0CF93953E
:2048C000880F08F09927EE0F9795879508950E944A2508F481E008950E9480240C9485250C
:2048E0000E947E2558F00E94772540F029F45F3F29F00C946E2551110C94B9250C9474259D
:204900000E94962568F39923B1F3552391F3951B550BBB27AA2762177307840738F09F5F1C
:204920005F4F220F331F441FAA1FA9F335D00E2E3AF0E0E832D091505040E695001CCAF780
:204940002BD0FE2F29D0660F771F881FBB1F261737074807AB07B0E809F0BB0B802DBF016A
:20496000FF2793585F4F3AF09E3F510578F00C946E250C94B9255F3FE4F3983ED4F38695D5
:2049800077956795B795F7959F5FC9F7880F911D9695879597F90895E1E0660F771F881F4D
:2049A000BB1F621773078407BA0720F0621B730B840BBA0BEE1F88F7E09508950E949E257C
:2049C00088F09F5798F0B92F9927B751B0F0E1F0660F771F881F991F1AF0BA95C9F714C069
:2049E000B13091F00E94B825B1E008950C94B825672F782F8827B85F39F0B93FCCF386952D
:204A000077956795B395D9F73EF490958095709561957F4F8F4F9F4F0895E89409C097FB01
:204A20003EF490958095709561957F4F8F4F9F4F9923A9F0F92F96E9BB279395F6958795C8
:204A400077956795B795F111F8CFFAF4BB0F11F460FF1BC06F5F7F4F8F4F9F4F16C0882359
:204A600011F096E911C0772321F09EE8872F762F05C0662371F096E8862F70E060E02AF0CD
:204A80009A95660F771F881FDAF7880F9695879597F90895990F0008550FAA0BE0E8FEEFDB
:204AA00016161706E807F907C0F012161306E407F50798F0621B730B840B950B39F40A26D7
:204AC00061F0232B242B252B21F408950A2609F4A140A6958FEF811D811D089597F99F67B0
:204AE00080E870E060E008959FEF80EC089500240A941616170618060906089500240A94F3
:204B000012161306140605060895092E0394000C11F4882352F0BB0F40F4BF2B11F460FF7A
:204B200004C06F5F7F4F8F4F9F4F089557FD9058440F551F59F05F3F71F04795880F97FB5C
:204B4000991F61F09F3F79F087950895121613061406551FF2CF4695F1DF08C01616170600
:204B60001806991FF1CF86957105610508940895E894BB2766277727CB0197F908950E944B
:204B80004A2508F48FEF08950E94D7250C9485250E94772538F00E947E2520F0952311F033
:204BA0000C946E250C94742511240C94B9250E94962570F3959FC1F3950F50E0551F629FE5
:204BC000F001729FBB27F00DB11D639FAA27F00DB11DAA1F649F6627B00DA11D661F829F0E
:204BE0002227B00DA11D621F739FB00DA11D621F839FA00D611D221F749F3327A00D611D3C
:204C0000231F849F600D211D822F762F6A2F11249F5750409AF0F1F088234AF0EE0FFF1F6F
:204C2000BB1F661F771F881F91505040A9F79E3F510580F00C946E250C94B9255F3FE4F3FE
:204C4000983ED4F3869577956795B795F795E7959F5FC1F7FE2B880F911D9695879597F945
:204C600008950E944A25880B990B0895A1E21A2EAA1BBB1BFD010DC0AA1FBB1FEE1FFF1FB3
:204C8000A217B307E407F50720F0A21BB30BE40BF50B661F771F881F991F1A9469F76095C3
:204CA0007095809590959B01AC01BD01CF010895EE0FFF1F0590F491E02D099481E090E091
:204CC000F8940C946C26FC0101900020E9F7809590958E0F9F1F0895F894FFCF01000000FB
:204CE0004000140054000A0B0C0D12130E0F1011121314150004040A0B0C0D12130E0F10A5
:204D000011121314150A0B0C0D12130E0F101112131415000A0B0C0D12130E0F101112139F
:204D20001415000A0B0C0D12130E0F1011121314150A0B0C0D12130E0F1011121314150A82
:204D40000B0C0D12130E0F1011121314150A0B0C0D12130E0F101112131415060504030A83
:204D60000908072020202033363953323538303134374300000000DE088C00D207C60700E0
:204D8000000000DE088C00D207C607DE08DE08DE0800000000A4087D07D20706076507398E
:204DA00007120700000000BF1C8C00D207C607000000000504EF03DD0300000000B7118C97
:204DC0000078018C121402AD01E8010D0A006E616E00696E66006F766600596F75722070F4
:204DE000617373776F72642E2E2E003E0043757272656E743A2000596F752077696E2100DF
:204E0000FFFFFFFFFFFFFFFFFFFFFFFFFFFFFFFFFFFFFFFFFFFFFFFFFFFFFFFFFFFFFFFFB2
:204E2000FFFFFFFFFFFFFFFFFFFFFFFFFFFFFFFFFFFFFFFFFFFFFFFFFFFFFFFFFFFFFFFF92
:204E4000FFFFFFFFFFFFFFFFFFFFFFFFFFFFFFFFFFFFFFFFFFFFFFFFFFFFFFFFFFFFFFFF72
:204E6000FFFFFFFFFFFFFFFFFFFFFFFFFFFFFFFFFFFFFFFFFFFFFFFFFFFFFFFFFFFFFFFF52
:207800000C94343C0C94513C0C94513C0C94513C0C94513C0C94513C0C94513C0C94513C1D
:207820000C94513C0C94513C0C94513C0C94513C0C94513C0C94513C0C94513C0C94513CE0
:207840000C94513C0C94513C0C94513C0C94513C0C94513C0C94513C0C94513C0C94513CC0
:207860000C94513C0C94513C11241FBECFEFD8E0DEBFCDBF11E0A0E0B1E0EAE8FFE702C081
:2078800005900D92A230B107D9F712E0A2E0B1E001C01D92AD30B107E1F70E942D3D0C94CC
:2078A000C33F0C94003C982F9595959595959595905D8F708A307CF0282F295A8091C000BE
:2078C00085FFFCCF9093C6008091C00085FFFCCF2093C6000895282F205DF0CF982F8091CF
:2078E000C00085FFFCCF9093C6000895EF92FF920F931F93EE24FF2487018091C00087FD7B
:2079000017C00894E11CF11C011D111D81E2E81681EAF80687E0080780E0180770F3E0910B
:207920000401F091050109958091C00087FFE9CF8091C6001F910F91FF90EF9008950E949A
:20794000763C982F8091C00085FFFCCF9093C60091362CF490330CF09053892F08959755DB
:20796000892F08951F930E949F3C182F0E949F3C1295107F810F1F9108951F93182F882308
:2079800021F00E94763C1150E1F71F9108951F93182F0E94763C803249F0809103018F5FC1
:2079A000809303018530C1F01F9108958091C00085FFFCCF84E18093C6008091C00085FF4A
:2079C000FCCF1093C6008091C00085FFFCCF80E18093C6001F910895E0910401F0910501CF
:2079E00009951F9108950E94763C803241F0809103018F5F80930301853081F00895809177
:207A0000C00085FFFCCF84E18093C6008091C00085FFFCCF80E18093C6000895E0910401AC
:207A2000F09105010995089548EC50E08823A1F02D9A28EE33E0FA013197F1F72150304068
:207A4000D1F72D9828EE33E0FA013197F1F721503040D1F7815061F708953F924F925F92B3
:207A60006F927F928F929F92AF92BF92CF92DF92EF92FF920F931F93CF93DF93000082E0A2
:207A80008093C00080E18093C4001092C50088E18093C10086E08093C2005098589A259A63
:207AA00081E00E94143D24E1F22E9EE1E92E85E9D82E0FE0C02E10E1B12EAA24A394B1E4FC
:207AC0009B2EA6E58A2EF2E57F2EE0E26E2E79E4572E63E5462E50E5352E0E94763C80337B
:207AE000B1F18133B9F1803409F46FC0813409F476C0823409F485C0853409F488C0803513
:207B000031F1823521F1813511F1853509F485C0863509F48DC0843609F496C0843709F4FC
:207B200003C1853709F472C1863709F466C0809103018F5F80930301853079F6E091040101
:207B4000F091050109950E94763C803351F60E94F33CC3CF0E94763C803249F78091C00038
:207B600085FFFCCFF092C6008091C00085FFFCCF9092C6008091C00085FFFCCF8092C6006E
:207B80008091C00085FFFCCF7092C6008091C00085FFFCCF6092C6008091C00085FFFCCF05
:207BA0005092C6008091C00085FFFCCF4092C6008091C00085FFFCCF3092C6008091C000EC
:207BC00085FFFCCFB092C60088CF0E94763C863808F4BDCF0E94763C0E94F33C7ECF0E9449
:207BE000763C803809F49CC0813809F40BC1823809F430C1883909F48FC080E00E94C73C86
:207C00006CCF84E10E94BD3C0E94F33C66CF85E00E94BD3C0E94F33C60CF0E94763C8093BC
:207C200006010E94763C809307010E94F33C55CF0E94763C803309F411C183E00E94BD3C05
:207C400080E00E94C73C49CF0E94763C809309020E94763C8093080280910C028E7F8093E5
:207C60000C020E94763C853409F409C18091080290910902892B89F000E010E00E94763C8A
:207C8000F801E85FFE4F80830F5F1F4F80910802909109020817190788F30E94763C803271
:207CA00009F045CF80910C0280FFF5C06091060170910701660F771F709307016093060153
:207CC000A0910802B09109021097C9F0E8E0F1E09B01AD014E0F5F1FF999FECF32BD21BDD3
:207CE000819180BDFA9AF99A2F5F3F4FE417F50799F76A0F7B1F7093070160930601809142
:207D0000C00085FFFCCFF092C6008091C00085FFFCCFB092C600E1CE83E00E94C73CDDCE82
:207D200082E00E94C73CD9CE0E94763C809309020E94763C80930802809106019091070171
:207D4000880F991F90930701809306010E94763C853409F49AC080910C028E7F80930C02DE
:207D60000E94763C803209F0B8CE8091C00085FFFCCFF092C600A0910802B09109021097E8
:207D8000C1F180910C02082F0170182F16951170E0910601F0910701AF014F5F5F4FBA012F
:207DA00020E030E00023B1F4112339F494918091C00085FFFCCF9093C6002F5F3F4FCB0174
:207DC0000196FA012A173B0780F4BC014F5F5F4F002351F3F999FECFF2BDE1BDF89A90B517
:207DE0008091C00085FFFCCFE6CF70930701609306018091C00085FDE5CE8091C00085FF4E
:207E0000F8CFE0CE81E00E94C73C67CE0E94763C803209F08CCE8091C00085FFFCCFF092B7
:207E2000C6008091C00085FFFCCFE092C6008091C00085FFFCCFD092C6008091C00085FF87
:207E4000FCCFC092C6008091C00085FFFCCFB092C60043CE80E10E94C73C3FCE0E94763C9F
:207E60000E94763C182F0E94763C112309F483C0113009F484C08FE00E94C73C2ECE8091FC
:207E80000C02816080930C02F1CE80910C02816080930C0265CF809107018823880F880BD0
:207EA0008A2180930B028091060190910701880F991F90930701809306018091080280FF88
:207EC00009C0809108029091090201969093090280930802F894F999FECF1127E091060115
:207EE000F0910701C8E0D1E08091080290910902103091F40091570001700130D9F303E05B
:207F000000935700E8950091570001700130D9F301E100935700E895099019900091570031
:207F200001700130D9F301E000935700E8951395103498F011270091570001700130D9F389
:207F400005E000935700E8950091570001700130D9F301E100935700E8953296029709F0DC
:207F6000C7CF103011F00296E5CF11248091C00085FFC5CEC8CE8EE10E94C73CAECD85E92E
:0C7F80000E94C73CAACDF894FFCF8000FF
:00000001FF
